:100000000C94DE010C9425020C9425020C9425021C
:100010000C9425020C9425020C9425020C942502C4
:100020000C9425020C9425020C94341A0C94071B92
:100030000C9494150C9425020C9425020C94250222
:100040000C9425020C9425020C9425020C94250294
:100050000C9425020C94FF150C9425020C94250297
:100060000C9425020C9425020C9425020C94250274
:100070000C9425020C9425020C9425020C94250264
:100080000C9425020C9425020C9425020C94250254
:100090000C9425020C9425020C9425020C94250244
:1000A0000C9425020C9425020C942502687474703B
:1000B000733A2F2F716D6B2E666D2F0A00514D4BC9
:1000C00020697320746865206265737420746869A0
:1000D0006E67206576657221003A003F0029001E98
:1000E000001F0020002100220023002400250026FC
:1000F0000027002D002E002A0057005400550056FE
:10010000003B0040002B0014001A000800150017E7
:10011000001C0018000C00120013002F00300028F3
:100120000000005F00600061003C004100390004F5
:10013000001600070009000A000B000D000E000F5A
:1001400000330034003200000000005C005D005EFF
:10015000003D004200E10064001D001B0006001984
:1001600000050011001000360037003800E50000DF
:1001700000520059005A005B003E004300E000E3DB
:1001800000E2000000000000002C00000000000061
:1001900000E6000151E400500051004F006200638E
:1001A0000001000100350001000100010001000113
:1001B0000001000100010001000100010001000137
:1001C00000530001000100010001000100010001D5
:1001D0000001000100010001000100010001000117
:1001E0000001000100010001000000010001000108
:1001F00000010001000100010001000100010001F7
:1002000000010001000100010001000100010000E7
:100210000000000100010001000100440001000194
:1002200000010001000100010001000100010001C6
:1002300000010001000100000001000100010001B7
:100240000001004500010001000100000000000065
:100250000001000000000000000100010001000199
:1002600000010001000100005C000000000000002F
:10027000002A2B2800000000000000000000000001
:100280000000000029000000002C1E342021222440
:10029000342627252E362D3738271E1F20212223CE
:1002A0002425263333362E37381F04050607080960
:1002B0000A0B0C0D0E0F1011121314151617181926
:1002C0001A1B1C1D2F3130232D3504050607080984
:1002D0000A0B0C0D0E0F1011121314151617181906
:1002E0001A1B1C1D2F3130354C000000000000008F
:1002F00000000000000000000000000000000000FE
:10030000000000000000000000000000007E0F0060
:10031000D4FFFFFFC70000007818036D006F006472
:1003200000650072006E005F006D0064006C0046A6
:100330000000000E03500069006C00690074006842
:100340000000000403090409022200010100A0FAD0
:10035000090400000103010100092111010001222B
:1003600040000705810308000A1201100100000087
:1003700008EDFE000001000102000105010906A1CF
:1003800001050719E029E715002501950875018188
:10039000029501750881010507190029FF1500263E
:1003A000FF009506750881000508190129059505C6
:1003B00075019102950175039101C00011241FBEC2
:1003C000CFEFDAE0DEBFCDBF04B603FE27C08091D9
:1003D000280290912902A0912A02B0912B02873025
:1003E000904BA740B04BD1F41092280210922902F2
:1003F00010922A0210922B0214BE84B7877F84BF0A
:100400000FB6F894A8958091600088618093600091
:10041000109260000FBEE0E0F8E3099511E0A0E063
:10042000B1E0E6E5FAE302C005900D92A632B1070D
:10043000D9F722E0A6E2B1E001C01D92A832B207CE
:10044000E1F70E9487170C94041D0C9400009C0196
:10045000FB0129328DE5380729F02A323D4551F05C
:1004600081E0089582818823D9F38DEB90E00E948A
:10047000B803F6CF8281882399F38CEA90E0F7CF16
:1004800081E008950C94270208950C9444021F9370
:10049000CF93DF9300D000D00F92CDB7DEB7498362
:1004A0005A836B833091520189819A8131111DC029
:1004B0006623B9F02223A9F00E94EB12182F682FAF
:1004C00089819A810E94941269817A81812F0F908B
:1004D0000F900F900F900F90DF91CF911F910C9480
:1004E000CA030E94C212182FEFCF0E94EB1269813B
:1004F0007A81EDCFFC01262F408151816281738189
:1005000084810C944702CF93DF93D82FC92F60E0EA
:100510000E947A026D2F7C2FDF91CF910C944502BF
:100520000E942E14811102C00E94D2140C949605D0
:100530000C94990508950E94C80D0E949A022FEF0D
:1005400084E39CE0215080409040E1F700C000002F
:100550000C9423160F931F93CF93DF93EC0161E06C
:100560000E947A028C01BE010E944202882329F176
:10057000BE01C8010E9480078823F9F0BE01C801AE
:100580000E94D5078823C9F0BE01C8010E94AD08AA
:10059000882399F08A81882339F001158CE51807A2
:1005A00051F00F3D1C4579F0CE01DF91CF911F91A5
:1005B0000F910C9440020E949B0280E0DF91CF914A
:1005C0001F910F9108950E94D214F7CFDF92EF92FE
:1005D000FF920F931F93CF93DF93E82FF0E0E7593B
:1005E000FD4FD490282F26952695269530E0F901C9
:1005F000E75FFC4F0491877010E0082E02C015954C
:1006000007950A94E2F701701127F901E750FD4FB1
:10061000E490F12C082E02C0F594E7940A94E2F7D6
:1006200091E0E922FF24F901E751FD4FC491D0E0A8
:1006300002C0D595C7958A95E2F7C170DD270115EF
:10064000110519F081EE0E94600AE114F10419F01D
:1006500086EE0E94600A8D2D0E94360BEF2819F05D
:1006600086EE0E94D00A012B19F081EE0E94D00A7A
:10067000CD2B51F08CE2DF91CF911F910F91FF9024
:10068000EF90DF900C94360BDF91CF911F910F917B
:10069000FF90EF90DF900895EF92FF920F931F93DA
:1006A000CF93DF938C01F62E8AE0E82EF801849137
:1006B000882309F456C0813009F04FC0E801219623
:1006C000FE018491813099F42196FE0184910E946B
:1006D000360B8E010F5F1F4F8F2D882339F3EFE903
:1006E000FFE03197F1F700C000008150F6CF823073
:1006F00039F4E8012296FE0184910E94600AE9CF54
:10070000833039F4E8012296FE0184910E94D00AD8
:10071000E0CF8430F1F6E8012296FE01249180E0DA
:1007200090E0FE0131962053330B2A30310550F012
:10073000009779F2EFE9FFE03197F1F700C0000090
:100740000197F6CFE89EA001E99E500D1124C90142
:10075000840F951F2491EF01E4CF0E94E602E80187
:10076000B8CFDF91CF911F910F91FF90EF90089537
:1007700060E00C944C0308950C94BB0381E0089551
:100780000C94BE03CF93C82F0E94BC038C2FCF9133
:100790000C94C003972F70E024E1929F600D711DAF
:1007A0001124FB0194E6899FE00DF11D1124EE0F49
:1007B000FF1FE752FF4F859194910895CF93DF93E8
:1007C0000E94CA030E94BA04EC01811523E5920736
:1007D000E0F5811532E5930708F0A2C0C11580E26B
:1007E000D807E8F4CF3FD10509F068F4C53AD10540
:1007F00070F4C430D10538F481E0219709F080E02D
:10080000C82F20E0D22FCE01DF91CF910895CE01E5
:10081000805E91090897B8F3D0E0C0E0F4CFC1152D
:1008200031E5D30768F4C11580E5D80708F05BC04F
:10083000CE0190548115904178F7DF70D06AE3CFF4
:10084000DC2FCC27C16FD06ADECF811539E5930745
:10085000A0F5C11588E5D80708F07AC0C11525E5CF
:10086000D207C8F4C11534E5D30708F06CC09E0167
:100870002370332781E090E002C0880F991F2A95EA
:10088000E2F7C695C69520E2C29FE0011124C82B6D
:10089000D92BDA68B8CFCE0195558F3F910511F06D
:1008A00008F0BACF8C2F0E945205C82FD0E0DC2F61
:1008B000CC27CC27DF71D062A6CF81153AE593070C
:1008C00008F44BC090568115904208F0A5CF8D2FAB
:1008D0008F710E94520590E0982F882788279F717A
:1008E0008C2BEC01E8CF9E0174E0369527957A9524
:1008F000E1F723708C2F86958695837030E2839F75
:10090000C0011124922BC37021E030E002C0220FFD
:10091000331FCA95E2F7822B932BEC01DC6873CF6F
:100920009C012370332781E090E002C0880F991F5B
:100930002A95E2F7C695C69520E2C29FE0011124F0
:10094000C82BD92BEBCFDC2FCC27C46FD06A5BCF61
:10095000DC2FCC27C06FD06A56CF8F700E94520513
:1009600034E0D695C7953A95E1F7CF709C2FEC010E
:10097000D06949CF803E910599F1C8F48133910542
:1009800009F476C048F48932910509F46AC08A32C4
:10099000910509F474C0089589339105D1F0823826
:1009A0009105B9F08533910509F454C00895843E4A
:1009B000910599F138F4823E9105F9F0833E910555
:1009C00009F10895863E910599F1873E9105B9F1A7
:1009D0000895209119022370A1F080EE90E008950F
:1009E0002091190220FD52C030911A0230FF09C037
:1009F00024FF4FC090E080E004C02091190222FD46
:100A0000F7CF08952091190222FD46C030911A02B5
:100A100030FDE3CF24FFF5CFEDCF20911A0221FF67
:100A2000F0CF8091190284FDE5CF87EE90E0089524
:100A30002091190223FFE5CF24FDDCCFF6CF2091D2
:100A4000190223FD2CC030911A0231FFE3CF84EE4E
:100A500090E008952091190225FFD3CF89E290E01C
:100A600008952091190225FFCCCF85E390E00895E9
:100A70002091190226FFC5CF8AE290E008952091C7
:100A8000190226FFBECF81E390E0089589E390E04C
:100A9000089583EE90E0089582EE90E0089586EE4A
:100AA00090E008959091190292FF06C0282F2871B6
:100AB0002830F9F4877F846093FF06C0282F2871BF
:100AC0002831F1F4877E846120911A0220FF06C04C
:100AD000382F38713830D9F4877F816021FF06C004
:100AE000282F28712831D1F4877E816194FD877E7B
:100AF0000895282F24712430F9F68B7F8860DCCF8D
:100B0000282F2471243101F78B7E8861DDCF382FA7
:100B10003171313019F78E7F8860E0CF282F217135
:100B2000213121F78E7E8861E1CF08950C949505DF
:100B300008950C949805CF93DF9300D000D0CDB7E3
:100B4000DEB794E0899FF0011124EF5FFD4F8081B3
:100B50009181A281B381BC01CD010F900F900F90C4
:100B60000F90DF91CF910895089580EA8A95F1F76B
:100B7000089500C008950C94B505F894E82FE29507
:100B8000EF70F0E041A18F7021E030E0B90102C0C8
:100B9000660F771F8A95E2F7CB01962F90959423E5
:100BA00091A392A1892B82A3789408950F931F9308
:100BB000CF93DF93CDE0D1E001E211E089910E9473
:100BC000BD050C171D07D1F786EF0E94BD0585EF07
:100BD0000E94BD0584EF0E94BD0581EF0E94BD0506
:100BE00080EF0E94BD0584E1EDEEF1E0DF01982F7A
:100BF0001D929A95E9F7E1E0F2E0DF011D928A95F6
:100C0000E9F785E00E94D606DF91CF911F910F9101
:100C10000C9490022F923F924F925F926F927F922C
:100C20008F929F92AF92BF92CF92DF92EF92FF92FC
:100C30000F931F93CF93DF9300D000D000D0CDB798
:100C4000DEB78DE0282E81E0382E1C821B8210E05A
:100C5000412C512C32014394F10181911F01F894F0
:100C6000E82FE295EF70F0E021A18F7041E050E0B5
:100C700002C0440F551F8A95E2F7CA01922F982BA4
:100C800091A392A18095892382A378940E94B905AB
:100C9000B301A2010B8004C0440F551F661F771FCC
:100CA0000A94D2F76A017B01C094D094E094F09446
:100CB0008DEE91E09E838D83E1E2F1E0FA83E9839A
:100CC00000E0ED81FE8181919191A191B191FE832E
:100CD000ED83E981FA81B190FA83E9832B2D229586
:100CE0002F70205E30E0F901208130E0FB2DFF7095
:100CF00002C035952795FA95E2F74C015D0120FD7C
:100D000050C0842A952AA62AB72A88159905AA05CB
:100D1000BB0549F0AD81BE8114978D929D92AD9235
:100D2000BC92139701E021E032E08D819E8128176B
:100D3000390739F6F101319780810E94BD059B8109
:100D4000933111F00E94BB05102BEB81FC81319691
:100D5000FC83EB83749709F07FCF212F45E061E09E
:100D600072E08DEE91E00E94D7060E949802812FDA
:100D700026960FB6F894DEBF0FBECDBFDF91CF91A0
:100D80001F910F91FF90EF90DF90CF90BF90AF90A9
:100D90009F908F907F906F905F904F903F902F909B
:100DA00008958C209D20AE20BF20AFCF0895FF92E4
:100DB0000F931F93CF93DF93F82E092F162FD72F62
:100DC000C42F222349F081E080932A010E94C41598
:100DD000909329018093280180912A018823A1F012
:100DE00080912801909129010E94F015069760F0EA
:100DF000EF2DF02FA12FBD2F90E080E0D0E08C17D9
:100E00009D0744F010922A01DF91CF911F910F911D
:100E1000FF90089501911191219131910D931D93AE
:100E20002D933D930196EBCF0F931F93CF93DF93B9
:100E3000C42FD22FFC0182818823C9F040932D0159
:100E40000E94C41590932C0180932B0180E28C0F9B
:100E5000883008F050C0C77081E001C0880FCA9583
:100E6000EAF7DF91CF911F910F910C943E0B1091F7
:100E70002D01141335C080912B0190912C010E94FB
:100E8000F015883C910560F5C0E2CD0F1D17B9F053
:100E900080E2810F883040F4177081E001C0880F34
:100EA0001A95EAF70E94450BC83048F481E09D2F5F
:100EB000977001C0880F9A95EAF70E943E0B802F29
:100EC0000E94360BC830B8F4D77081E001C0880F9B
:100ED000DA95EAF7DF91CF911F910F910C94450BB2
:100EE00080E28C0F883038F4C77081E001C0880F31
:100EF000CA95EAF7EFCFDF91CF911F910F91089537
:100F00000F939C01CB01243F4CE53407A1F190F4F1
:100F1000293DFCE53F0749F12A3D4CE53407E9F15D
:100F2000283D3C45C1F0FC0182818823E1F110920B
:100F30002D0119C0263FFCE53F0719F1273F4CE57D
:100F4000340729F1253F3C4571F707E225EE44EED1
:100F500065EF7CE505C006E221EE41EE68ED7CE53B
:100F60000E94140780E00F91089507E225EE45EEF8
:100F700069ED7CE5F5CF06E221EE40EE64EF7CE51D
:100F8000EFCF06E221EE42EE66EF7CE5E9CF07E225
:100F900025EE46EE67EF7CE5E3CF08E221E045EE83
:100FA0006AED7CE5DDCF81E0DECFCF93DF93EC010E
:100FB000FB018281882309F4CEC0C631FCE5DF073E
:100FC000E0F4C2309CE5D907F0F00E944114909300
:100FD0001A0280931902C631ECE5DE0720F5C23013
:100FE000FCE5DF0798F48091190290911A020E94A3
:100FF0004F140E94C80D80E006C09E012B5F3C4547
:101000002930310510F3DF91CF910895FE01E350AF
:10101000FC45809119028160E331F105B0F4EA5F8B
:10102000F24E0C94BC1CCE018B5F9C450997D8F600
:10103000FE01EC5FFC45E830F10590F4E75EF24E0E
:101040000C94BC1C80911902826080931902CBCF52
:10105000809119028460F9CF809119028860F5CFE0
:1010600080911A02816080931A02BDCF80911A028A
:101070008260F9CF809119028061E7CF80911902D7
:101080008062E3CF809119028064DFCF0E94C80D97
:10109000809119028068D9CF809119028C60D5CFD8
:1010A00080911A028360DFCF809119028E7FCDCFAD
:1010B000809119028D7FC9CF809119028B7FC5CF96
:1010C00080911902877FC1CF80911A028E7FCBCF8A
:1010D00080911A028D7FC7CF809119028F7EB5CF84
:1010E000809119028F7DB1CF809119028F7BADCF96
:1010F0000E94C80D809119028F77A7CF80911902A5
:10110000837FA3CF80911A028C7FADCF809119028B
:1011100082FB992790F921E0922790FB82F990FBBE
:1011200083F993CF80911A02982F909591708E7FBA
:10113000892B90FB81F997CF0E94C80D90911902DD
:10114000892F97FB87F9805880CF81E00E94D414C3
:101150004ACF80E0FBCF81E056CFCF93DF93EB0106
:1011600086319C4511F50E9488139A81992399F044
:101170008A7A91E009F490E090932E01811109C0E0
:1011800089E20E9463130E94C91380E0DF91CF912E
:10119000089585E3F6CF80912E01811104C089E284
:1011A0000E946A13F0CF85E3FBCF81E0EFCF9093ED
:1011B0003401809333010895E0913301F0913401BB
:1011C000309721F00190F081E02D099480E008959E
:1011D000E0913301F0913401309721F00280F381E6
:1011E000E02D0994089520913101309132012817A2
:1011F000390771F09093320180933101E09133010E
:10120000F0913401309721F00680F781E02D0994A8
:10121000089520912F01309130012817390771F07E
:101220009093300180932F01E0913301F0913401CC
:10123000309721F00084F185E02D099408950E94F3
:10124000D01560934E0170934F018093500190939D
:10125000510160934A0170934B0180934C0190932C
:101260004D01089585B7806885BF85B7806885BFC3
:101270000895089508950C94390908950C943D0932
:101280000E9432098CE294E10E9447160E943A09BA
:101290000C943B0981E008950C944A09089508953F
:1012A0000E94BB150E94D6050E944C160C943E0964
:1012B0004F925F926F927F928F929F92AF92BF9266
:1012C000CF92DF92EF92FF920F931F93CF93DF9312
:1012D00000D000D00F92CDB7DEB70E944E090E9419
:1012E0004F090E940A0681110E941F0956E3A52E8C
:1012F00051E0B52E10E000E0802E802F0E949B056B
:101300006B017C01F50141905190619071905F01FA
:101310004C145D046E047F0409F474C08091E101F3
:1013200081FD0E94B405D301C2018C259D25AE2507
:10133000BF25912C412C512C32014394AC01BD01AD
:101340004421552166217721452B462B472B09F453
:1013500051C00E944C098823C9F099828A82C42016
:10136000D520E620F72081E0CD28CE28CF2809F42B
:1013700080E08B830E94C4158160782F9D838C83CD
:1013800049815A816B81892F0E942F0A000F111FFA
:10139000000F111FF801EA5CFE4F80819181A2814C
:1013A000B38184259525A625B72580839183A283C3
:1013B000B3830E94DC08909135018917D1F10E9416
:1013C000DC08809335010F900F900F900F900F90D5
:1013D000DF91CF911F910F91FF90EF90DF90CF9011
:1013E000BF90AF909F908F907F906F905F904F9045
:1013F0000C94C2039394440C551C661C771CF4E1B6
:101400009F129CCF0F5F1F4F0530110509F074CF5D
:101410008FEF89838A831B820E94C4158160782F95
:101420009D838C8349815A816B81892F0E942F0A69
:10143000C0CF0F900F900F900F900F90DF91CF9132
:101440001F910F91FF90EF90DF90CF90BF90AF90E2
:101450009F908F907F906F905F904F900895CF9363
:10146000DF93CDB7DEB72B970FB6F894DEBF0FBE74
:10147000CDBF4F83588769877A878B8761110E9418
:10148000AA131E8285E0FE013796DE0111960190B7
:101490000D928A95E1F749815A816B817C818D811A
:1014A0009E812B960FB6F894DEBF0FBECDBFDF91A5
:1014B000CF910C942610FC01808191810C942D1306
:1014C000CF93C82F882309F469C08238C1F40E94E1
:1014D000DC0881FD63C089E30E9463130E94C91385
:1014E0002FEF81EE94E0215080409040E1F700C062
:1014F000000089E30E946A13CF910C94C9138338CA
:10150000A1F40E94DC0880FD49C083E50E946313BA
:101510000E94C9132FEF81EE94E02150804090404B
:10152000E1F700C0000083E5E5CF8438A1F40E9414
:10153000DC0882FD33C087E40E9463130E94C91354
:101540002FEF81EE94E0215080409040E1F700C001
:10155000000087E4CFCF8CEF8C0F813A90F46C2F92
:1015600080910001909101010E94EB14882329F0E1
:101570008C2F0E946A130E94C9138C2F0E94631340
:10158000BBCF80E28C0F883048F4C77081E001C087
:10159000880FCA95EAF70E948B13AECFCF910895BA
:1015A000882309F44BC0823871F40E94DC0881FF63
:1015B00045C089E30E9463130E94C91389E30E9416
:1015C0006A130C94C913833859F40E94DC0880FF15
:1015D00035C083E50E9463130E94C91383E5EFCFF2
:1015E000843859F40E94DC0882FF28C087E40E94F6
:1015F00063130E94C91387E4E2CF9CEF980F913ADE
:10160000F0F290E2980F983050F4877091E001C0AA
:10161000990F8A95EAF7892F0E949113D2CF9BE503
:10162000980F933020F490E080E00C94F308885AEF
:10163000873120F490E080E00C94090908951F930D
:10164000CF93DF93182FEB010E94600A209731F4AB
:10165000812FDF91CF911F910C94D00A8FE99FE0E9
:101660000197F1F700C000002197F0CF70E060E033
:10167000893311F460E570E00C941F0B882321F08E
:101680000E948B130C94C9130895882321F00E94A3
:1016900091130C94C9130895BF92CF92DF92EF92E9
:1016A000FF920F931F93CF93DF9300D000D00F9240
:1016B000CDB7DEB76C016D837983FC0102811581A2
:1016C00012951F700E948113E82E8823A1F0E02E4E
:1016D000002389F08981807F803429F08D81805EAC
:1016E000E12C883040F082E00E9414140E948113A3
:1016F00091E0E82EE926B980B2949FE0B922F8E0A3
:10170000BF1609F4D5C0FB15A8F121E02B1508F090
:1017100044C08EE08B0D8F70823008F474C0EB2DC6
:10172000E850FF0B349720F40E94DC080E94C203AB
:10173000EE2009F4D5C10E947D1380FDD1C1F601D0
:1017400012820E9477130E948411C6010E94960D96
:101750000E9477130F900F900F900F900F90DF91D2
:10176000CF911F910F91FF90EF90DF90CF90BF909E
:101770000C94B51139E0B31609F446C186E08B0D1F
:101780008F70823060F68D81823F09F04EC1898171
:101790008F71002309F47CC145C119811F709981A3
:1017A000907F11F01295107F0023B1F0112361F0AA
:1017B0008D81805E883018F00D81011109C0812F64
:1017C0000E948B130E94C9138D810E94600AA7CFCB
:1017D000812F0E949C13F6CF8D810E94D00A112385
:1017E00009F49DCF8D81805E883018F00D81011144
:1017F00006C0812F0E9491130E94C91390CF812FA0
:101800000E94A213F9CF29812F70F22E3981307FE7
:10181000303219F0F29480EFF8228D81882369F03C
:10182000813049F1002391F1112351F1F6018581B5
:1018300080FFCACF8F70858323C0002381F01111F0
:1018400006C00E94B0138F290E943E0B68CF113052
:10185000C1F70E94B0138F290E94B61360CF1111F7
:1018600006C00E94BF138F2D0E94450B58CF113028
:1018700009F455CFF6CF002329F0163008F04FCFEA
:101880008F2DE2CF153008F04ACFEDCF112359F359
:101890000D81093349F41FEF27EE33E0115020404A
:1018A0003040E1F700C000008D810E94D00A37CFA0
:1018B0008981837009F050C0011131CF2D812295AB
:1018C00026952770220F220F4D814F7050E070E057
:1018D00060E0022E04C0440F551F661F771F0A9454
:1018E000D2F70D8180E090E0DC0104FF0FC08FE0B3
:1018F00090E0A0E0B0E004C0880F991FAA1FBB1FB2
:101900002A95D2F780959095A095B0951981169556
:10191000169513701D838C019D01042B152B262B0E
:10192000372B09831A832B833C831D8169817A813C
:101930008B819C81123051F0133059F0113019F025
:101940000E94FA10ECCE0E94D210E9CE0E94221121
:10195000E6CE0E94D010E3CE002309F448C00981EE
:1019600000FFDDCE2D81229526952770220F220FB4
:101970004D814F7050E070E060E0022E04C0440FD3
:10198000551F661F771F0A94D2F70D8180E090E003
:10199000DC0104FF0FC08FE090E0A0E0B0E004C0E5
:1019A000880F991FAA1FBB1F2A95D2F78095909583
:1019B000A095B09519811695169513701D838C010D
:1019C0009D01042B152B262B372B09831A832B8380
:1019D0003C831D8169817A818B819C81123071F0F9
:1019E000133079F0113039F00E94431298CE1981EA
:1019F00011FF95CEB7CF0E941B1291CE0E946B12A1
:101A00008ECE0E944E118BCE19811F701983002338
:101A100029F0812F0E9484118D8116CF8D810E9423
:101A2000450B89810E94B5117ACE2D81233F60F448
:101A3000203FE1F0213F41F1002309F440C01111A2
:101A4000C3CE89818F7124C03D81333F21F1343F62
:101A500099F7002351F109810F710983802F0E94AA
:101A6000841163E089810E94FF1359CE002341F065
:101A7000153008F054CE89818F710E94EA114FCE43
:101A8000163008F04CCEF7CF89818F71002351F2C8
:101A90000E94841144CE002329F089818F710E9415
:101AA0005F113DCE0E945A113ACE81E00E9414147B
:101AB000123008F434CE82E00E94141430CE112388
:101AC00061F01D81193309F0EFCE2FEF37EE83E07F
:101AD000215030408040E1F7E5CE89818F71A2CF5F
:101AE0000F900F900F900F900F90DF91CF911F915B
:101AF0000F91FF90EF90DF90CF90BF9008950F93DC
:101B00001F93CF93DF93EC01688179818A810E94D2
:101B100039138C010E9493120E94CF10B801CE019C
:101B2000DF91CF911F910F910C944C0BCF93DF93CA
:101B3000EC01988189812B813C81232B19F0892329
:101B40008F3F59F4DF91CF910895CE010E947F0D10
:101B5000CE01DF91CF910C948302CE010E94AA02A4
:101B60008111F3CF0E948113882361F38A81882336
:101B700049F382E0DF91CF910C9414140E94AA13D0
:101B80000E94AD130C94C9130E9471130C94BE0DE6
:101B90000E9499130C94C40D282F892F82958F7061
:101BA000903C80F48A30B0F4843020F4823090F499
:101BB00080E008958630E1F781E0283E88F0213FFB
:101BC000B9F70EC08C3011F08F3091F793FB882756
:101BD00080F9089581E0203F39F018F4283E40F75D
:101BE0000895243F29F7FCCF08950E942D130C94EB
:101BF000CC0DCF93DF9300D000D00F92CDB7DEB7DE
:101C00000F900F900F900F900F90DF91CF9108954C
:101C1000CF93DF9300D000D000D0CDB7DEB72696AB
:101C20000FB6F894DEBF0FBECDBFDF91CF91089500
:101C30001F93CF93DF93E091530116E080915401FD
:101C40008E1304C0DF91CF911F910895CE2FD0E065
:101C50001E9FF0011124EB5AFE4F40815181628199
:101C60007381848195810E94080E2196EC2FE77084
:101C7000E5CF409185015091860160918701709177
:101C800088018091890190918A010C94080E1F931C
:101C9000CF93DF9380918A01807FA9F4809187019F
:101CA000882389F080915301C0915401709185017E
:101CB00060918601A0918801B0918901D62FD72328
:101CC00016E0C81304C0DF91CF911F91089590E0F2
:101CD000109711F0DF3F19F401968770F2CF189F2B
:101CE0009001199F300D1124F901EB5AFE4F4181EB
:101CF0006413F2CF40814713EFCF42814111ECCF03
:101D0000438154814A1B5B0B483C510528F7809165
:101D10008A018F70806180938A01F901E65AFE4F33
:101D200080818F708061808385E891E00E94960DAC
:101D3000DF91CF911F910C94180EAF92BF92CF926A
:101D4000DF92EF92FF920F931F93CF93DF93CDB764
:101D5000DEB72B970FB6F894DEBF0FBECDBF8C0158
:101D600085E0F801DE01179601900D928A95E1F762
:101D7000F801E28030812181C380D48085E8A82EDB
:101D800081E0B82E90918501409186016091880193
:101D9000709189016115710529F0892F84238F3F86
:101DA00009F041C1EE2009F44DC18F8198850E9450
:101DB000F50DF82E882309F445C186E0F801A5E861
:101DC000B1E001900D928A95E1F785E891E00E94DB
:101DD0005B0A0E94470E24C180918A01582F507FD0
:101DE000683C710508F07AC05111B5C0FE2C24136F
:101DF00024C0931322C0E11020C08F7080618093B3
:101E00008A010E94390E85E891E00E94960D80912A
:101E10008A01F80185838F2D2B960FB6F894DEBFCB
:101E20000FBECDBFDF91CF911F910F91FF90EF902B
:101E3000DF90CF90BF90AF900895CD2829F0822FEA
:101E400083238F3F09F084C080E0F82FF170DF2EEC
:101E5000E09153014091540156E080FD1CC0EE20FA
:101E6000D1F280918A01816080938A01F12CD3CFD5
:101E70008E2F90E05E9FF0011124EB5AFE4F61819E
:101E8000261306C06081361303C062816E11E7CF4E
:101E90000196E82FE770E413EBCF8F8198850E94BD
:101EA0002D13292F22952F70903260F0225F2F7012
:101EB000223078F49F7051F0F8019581907F31F4D1
:101EC000D12C0AC09F7011F08823D1F3805E883036
:101ED000B8F3C8010E94960DFD2C9DCF51116EC024
:101EE0004F81588569857A858B850E94F90D85E833
:101EF00091E00E94960D86E0F50111928A95E9F72E
:101F00000E94390EB3CF86E0F801A5E8B1E0019058
:101F10000D928A95E1F77FCF8F8198850E94F50D0C
:101F200081113DC080918A01816080938A01C8013E
:101F30000E94960D70CF4F81588569857A858B8573
:101F40000E94F90D86E0F50111928A95E9F768C0C3
:101F500081E08E257ACF241306C0931304C0F801C4
:101F6000EE2009F451C08F8198850E94F50D8823D9
:101F700009F468C0EE2009F465C080918A018032BE
:101F800070F020918501309186013A8329831B826C
:101F9000DD82CC828E83CE0101960E94960D86E072
:101FA000F801A5E8B1E001900D928A95E1F70E9451
:101FB000470E0E94390EFF24F3942DCF2413D3CF64
:101FC0009313D1CFE110CFCFF8018583C8010E94D0
:101FD000960D86E0F50111928A95E9F71CCF24133E
:101FE0009BCF931399CF80918A0180FD8CCF982F3E
:101FF000907F09F488CFF8018583903F31F0982FC6
:10200000907F905F8F70892B8583C8010E94960D09
:1020100086E0F801A5E8B1E001900D928A95E1F71C
:102020000E94390EF8CEF0908701F601E61BF70BFF
:10203000BF01F110D1CE683C710508F07CCFFE2CB9
:10204000E110CDCFC8010E94960DB5CF1F93CF935D
:10205000DF93CDB7DEB72C970FB6F894DEBF0FBE77
:10206000CDBF4F83588769877A878B879C87CE013E
:1020700007960E949D0E882369F08A859B85892B8F
:1020800039F058854F81852F84238F3F09F071C027
:1020900016E05FC086E0FE013796DE0111960190E2
:1020A0000D928A95E1F78F81988520915401409196
:1020B00053016A857B85672B59F389238F3F41F351
:1020C00030E0C9010196877099274817190671F405
:1020D0000E94C80D109254011092530186E0E5E869
:1020E000F1E0DF011D928A95E9F7D2CF96E0929F49
:1020F000D001939FB00D1124AB5ABE4FFE01319613
:1021000001900D929A95E1F7809354010E94180E68
:10211000BFCF819FC00111248B5A9E4F0E949D0EFC
:102120008823E9F0E09153011E9FF0011124EB5A3E
:10213000FE4F4081518162817381848195810E942B
:10214000080E8091530190E0019687709927809343
:10215000530180915301909154018913DACF2C9649
:102160000FB6F894DEBF0FBECDBFDF91CF911F91A8
:10217000089569857A858B859C850E94080E88CF95
:1021800008950C94C0100E94C1106093D001709308
:10219000D1018093D2019093D3010C94BE0D089588
:1021A0000C94C310CF93DF9300D000D0CDB7DEB72F
:1021B00069837A838B839C838091D0019091D10134
:1021C000A091D201B091D30129813A814B815C81E8
:1021D000282B392B4A2B5B2B29833A834B835C8337
:1021E000CA01B9010F900F900F900F90DF91CF911E
:1021F0000C94C310CF93DF9300D000D0CDB7DEB7DF
:1022000069837A838B839C838091D0019091D101E3
:10221000A091D201B091D30129813A814B815C8197
:10222000282339234A235B2329833A834B835C8306
:10223000CA01B9010F900F900F900F90DF91CF91CD
:102240000C94C310CF93DF9300D000D0CDB7DEB78E
:1022500069837A838B839C838091D0019091D10193
:10226000A091D201B091D30129813A814B815C8147
:10227000282739274A275B2729833A834B835C83A6
:10228000CA01B9010F900F900F900F90DF91CF917D
:102290000C94C3100C94C0100C944A110E944C1161
:1022A0006093CC017093CD018093CE019093CF01C8
:1022B0000C94BE0D60E070E0CB010C944E110F93B6
:1022C0001F93CF93DF9300D000D0CDB7DEB741E0AE
:1022D00050E060E070E08A019B0104C0000F111F14
:1022E000221F331F8A95D2F709831A832B833C83DD
:1022F000C901B8010F900F900F900F90DF91CF910F
:102300001F910F910C944E110F931F93CF93DF9356
:1023100000D000D0CDB7DEB741E050E060E070E023
:1023200004C0440F551F661F771F8A95D2F780910E
:10233000CC019091CD01A091CE01B091CF018A0145
:102340009B01082B192B2A2B3B2B09831A832B83E8
:102350003C83C901B8010F900F900F900F90DF914F
:10236000CF911F910F910C944E110F931F93CF9308
:10237000DF9300D000D0CDB7DEB741E050E060E0A1
:1023800070E004C0440F551F661F771F8A95D2F76F
:1023900040955095609570958091CC019091CD01BC
:1023A000A091CE01B091CF018A019B01082319238E
:1023B0002A233B2309831A832B833C83C901B80159
:1023C0000F900F900F900F90DF91CF911F910F9171
:1023D0000C944E110F931F93CF93DF9300D000D036
:1023E000CDB7DEB741E050E060E070E004C0440FDC
:1023F000551F661F771F8A95D2F78091CC01909167
:10240000CD01A091CE01B091CF018A019B01082797
:1024100019272A273B2709831A832B833C83C90169
:10242000B8010F900F900F900F90DF91CF911F91F7
:102430000F910C944E11CF93DF9300D000D0CDB705
:10244000DEB769837A838B839C838091CC019091E2
:10245000CD01A091CE01B091CF0129813A814B816C
:102460005C81282B392B4A2B5B2B29833A834B83A6
:102470005C83CA01B9010F900F900F900F90DF910C
:10248000CF910C944E11CF93DF9300D000D0CDB7F5
:10249000DEB769837A838B839C838091CC01909192
:1024A000CD01A091CE01B091CF0129813A814B811C
:1024B0005C81282339234A235B2329833A834B8376
:1024C0005C83CA01B9010F900F900F900F90DF91BC
:1024D000CF910C944E11CF93DF9300D000D0CDB7A5
:1024E000DEB769837A838B839C838091CC01909142
:1024F000CD01A091CE01B091CF0129813A814B81CC
:102500005C81282739274A275B2729833A834B8315
:102510005C83CA01B9010F900F900F900F90DF916B
:10252000CF910C944E110895E82F24E1929FE00D75
:1025300011248E2F877041E001C0440F8A95EAF77D
:10254000E695E695E69585E0E89FF0011124E557CC
:10255000FE4F30E020E070E05191DF011197CB0198
:10256000022E02C0969587950A94E2F781708195B4
:102570008527842385278C932F5F3F4F2530310596
:1025800059F70895E82F24E1929FE00D11249E2F22
:102590009770E695E695E69585E0E89FF0011124B1
:1025A000E557FE4F50E040E080E0219130E0092EF9
:1025B00002C0369527950A94E2F721703327042E3E
:1025C00001C0220F0A94EAF7822B4F5F5F4F45301C
:1025D000510559F70895BF92CF92DF92EF92FF9283
:1025E0000F931F93CF93DF938C01C090CC01D090B9
:1025F000CD01E090CE01F090CF018091D00190917B
:10260000D101A091D201B091D301C82AD92AEA2AD6
:10261000FB2ACFE1D0E0BC2ED701C6010C2E04C0AE
:10262000B695A795979587950A94D2F780FD0EC029
:10263000219788F7B12C8B2DDF91CF911F910F91AE
:10264000FF90EF90DF90CF90BF900895B8018C2F4E
:102650000E94DE03019761F3EECFCF93DF93D82F73
:10266000C92F0E94EB126D2F7C2FDF91CF910C941C
:10267000DE031F93CF93DF93162FD72F9091520134
:10268000992339F0862F972FDF91CF911F910C94CA
:102690002D13882391F0862F972F0E94EB12C82FBD
:1026A000682F812F9D2F0E949412612F7D2F8C2FD8
:1026B000DF91CF911F910C94DE03862F972F0E94FC
:1026C000C212C82FF2CF682F8091000190910101B2
:1026D0000C942515682F80910001909101010C94B4
:1026E000271580910001909101010C94291580918A
:1026F000D40185958595859508958091D40187703D
:1027000008959091D401977081E009F480E00895D4
:102710008091E00108959091E001982B9093E00161
:102720000895982F90958091E00189238093E0018E
:1027300008951092E00108959091DF01982B9093F5
:10274000DF010895982F90958091DF018923809370
:10275000DF0108951092DF0108951092DE010895BF
:102760008091D501089508950C94B3139091D501EB
:10277000981721F08093D5010C94B413089580919B
:10278000D501882329F01092D50180E00C94B41370
:102790000895E0910001F09101018091E0018083B2
:1027A000E0910001F091010180819091DF01892B7E
:1027B0008083E0910001F091010180819091DE0120
:1027C000892B80839091D501992381F0E0910001BC
:1027D000F09101018081892B80838091000190918B
:1027E00001010E94D91481110E94BF138091000140
:1027F000909101010C94E80808950C94FC1398E062
:10280000899F90011124622B6093D4010E9484114E
:102810008091D4018595859585950C94FD13109232
:10282000D40180E00C94FD139091D401809589230C
:102830008093D401282F277071F4282F082E000CC4
:10284000330B9217130639F08595859585950E946F
:10285000B5110C940F14089580E0089590E080E085
:102860000E94CA1C9C0181E02B3E3E4F09F080E093
:10287000089582E090E00C94C21C83E090E00C94F8
:10288000C21CCF9384E090E00E94C21CC82F81E25A
:1028900090E00E94C21C982F8C2FCF910895CF9367
:1028A000682FC92F84E090E00E94D01C6C2F81E239
:1028B00090E0CF910C94D01CAB01BC018FE090E074
:1028C0000C94E21CAB01BC0183E190E00C94E21C8F
:1028D00060E070E0CB010C94621460E070E0CB012A
:1028E0000E945C140C9468146BEE7EEF90E080E024
:1028F0000E94EE1C60E082E090E00E94D01C60E04C
:1029000083E090E00E94D01C1092D0011092D1017F
:102910001092D2011092D30160E084E090E00E9416
:10292000D01C60E081E290E00E94D01C60E085E075
:1029300090E00E94D01C60E086E090E00E94D01CF5
:102940006FEF87E090E00E94D01C40E050E0BA01B9
:1029500088E090E00E94E21C60E08DE090E00E9440
:10296000D01C40E050E0BA0188E190E00E94E21CF7
:1029700060E087E190E00E94D01C40E050E0BA01A6
:102980008CE190E00E94E21C60E080E290E00E9416
:10299000D01C40E050E0BA0188E190E00E94E21CC7
:1029A0000C946D140C947414682F8EE090E00C94C9
:1029B000D01CAC019C012E5F3F4F485F5F4F80E011
:1029C0002417350709F40895F90191919F0199237E
:1029D000B9F38F5FF5CF9C01662351F0FC0132966D
:1029E000285F3F4F8191861729F0E217F307D1F74F
:1029F00080E0089581E008959C01FC0132968FEFFC
:102A000090E04191461751F08F3F19F4411101C0F8
:102A1000892F9F5F9630A9F78F3F09F40895280FFB
:102A2000311D87FD3A95F901628308959C01FC01EF
:102A30003296285F3F4F8191861303C0DF011197C3
:102A40001C92E217F307B9F708950C94FC140C9448
:102A50001615FC01329686E0DF011D928A95E9F792
:102A60000895089508950C94321580911F028430C2
:102A700049F10E94331580E00E94C2031092E201E6
:102A800088E190E020E40FB6F894A8958093600068
:102A90000FBE2093600083B7817F846083BF83B7BC
:102AA000816083BF7894889583B78E7F83BF0FB68C
:102AB000F894A895809160008861809360001092DE
:102AC00060000FBE08950895CF93DF9300D000D02B
:102AD0000F92CDB7DEB70E9431150E940A060E9400
:102AE00063151D828D810E949B05672B682B692BC6
:102AF00071F48D818F5F8D838530A1F780E00F9019
:102B00000F900F900F900F90DF91CF91089581E07B
:102B1000F6CF08950C9489150E94C80D0E94DC0818
:102B20000E94C2030C948A151F921FB61F92112493
:102B30008F939F93AF93BF938091E201811113C054
:102B40008091150290911602A0911702B09118027F
:102B50004196A11DB11D8093150290931602A0937A
:102B60001702B0931802BF91AF919F918F911F9060
:102B70001FBE1F90189582E084BD93E095BD9AEF2B
:102B800097BD80936E0008952FB7F8948091150239
:102B900090911602A0911702B09118022FBF0895CC
:102BA000CF93DF9300D000D0CDB7DEB78FB7F894C6
:102BB000209115023091160240911702509118028F
:102BC00029833A834B835C838FBF69817A818B81B0
:102BD0009C810F900F900F900F90DF91CF910895EF
:102BE0009C014FB7F8948091150290911602A09124
:102BF0001702B09118024FBF821B930B089578946F
:102C00001F921FB61F9211248F939F93AF93BF9370
:102C10008091150290911602A0911702B0911802AE
:102C20000196A11DB11D8093150290931602A093E9
:102C30001702B0931802BF91AF919F918F911F908F
:102C40001FBE1F90189581E08093E00080E2809382
:102C5000D8001092C9008FE19EE40197F1F700C0FF
:102C6000000087E090EBDC0180932802909329021A
:102C7000A0932A02B0932B0288E19CE00FB6F8944F
:102C8000A895809360000FBE90936000FFCF909353
:102C90002701809326010895CF93DF9300D000D0C1
:102CA000CDB7DEB70E942E14811102C00E94D2144B
:102CB0000E9439148093E1010E94411490931A02FA
:102CC000809319020E943D14282F30E050E040E02C
:102CD000CA01B9010E94D0108091CC019091CD0120
:102CE000A091CE01B091CF0189839A83AB83BC833D
:102CF000BC01CD010F900F900F900F90DF91CF91FD
:102D00000C944C118091EB01089508950895CF9390
:102D1000DF93D82FC92F81E08093E9008FEF909146
:102D2000E800815095FD06C095ED9A95F1F70000F9
:102D30008111F5CF8091E80085FF16C050E040E09A
:102D400068E070E08D2F9C2F0E9431188091E80080
:102D50008E778093E80088E0ED2FFC2FA3EEB1E0A2
:102D600001900D928A95E1F7DF91CF910895089532
:102D700080911E02811109C00E94B9190E94161A81
:102D80008091E20084608093E200089510921E0218
:102D9000089508950895089542E061EC81E00C944F
:102DA000351980912102893089F148F4823009F483
:102DB0009DC0833009F458C0813041F008958A30B5
:102DC00009F484C08B3009F46AC008958091200210
:102DD000813A09F048C08091E800877F8093E8003D
:102DE0008091240290912502892B61F468E083EEA2
:102DF00091E070E00E9480188091E8008B778093CA
:102E0000E800089560E090E080E0F3CF8091200238
:102E1000813249F58091240290912502892B19F580
:102E20008091E800877F8093E8008091E80082FF2E
:102E300016C09091F3008091F200029729F48091DE
:102E4000F1008B7F813021F48091F1008093EB01C0
:102E50008091E8008B778093E8000C946919809149
:102E60001F028111E2CF089580912002813AD9F7A3
:102E70008091240290912502892BA9F78091E80086
:102E8000877F8093E8008091E80080FFFCCF8091ED
:102E90000C018093F1008091E8008E77DCCF809167
:102EA0002002813201F78091240290912502892B22
:102EB000D1F68091E800877F8093E8000E9469192D
:102EC0008091220280930C010C94C80D8091200205
:102ED000813249F68091E800877F8093E8000E9464
:102EE0006919809123028093EC010895809120025A
:102EF000813A09F0B8CF8091E800877F8093E8009D
:102F00008091E80080FFFCCF8091EC01C2CF84B7B4
:102F1000877F84BF0FB6F894A89580916000886180
:102F200080936000109260000FBE80E890E00FB6C2
:102F3000F89480936100909361000FBE0E94400955
:102F40000E94B9190E94161A8091E2008460809351
:102F5000E20078940E94A21C0E94500982E091E055
:102F60000E94D70880911F028530A9F00E9458095D
:102F70000E944E090E944F09F5CF0E94351580919D
:102F80001D02882341F00E946415882321F00E94CD
:102F90001B180E94C80D80911F02853071F30E949A
:102FA0008C15E4CF0C94D4179C01FB01DA01832F1C
:102FB000992783309105B9F060F481309105B1F122
:102FC000029761F482E290E027E433E02D933C9392
:102FD000089581329105E1F0829709F190E080E057
:102FE00030E020E0F3CFC9019927213059F0823039
:102FF000910559F0E3E4F3E0892B81F7849190E0A7
:103000009F01E4CFE3E3F3E0F9CFE9E1F3E0F6CFAA
:1030100089E090E029E533E0EF2B01F7D7CF80E49A
:1030200090E02BE733E0EF2BC9F6D0CF82E190E0C0
:1030300029E633E0CBCF80E189BD82E189BD09B4C7
:1030400000FEFDCF8091D8008F7D8093D8008091C5
:10305000E00082608093E0008091E00081FDFCCF81
:103060000895AF92BF92CF92DF92FF920F931F937A
:10307000CF93DF936C01EB018A010E948819F82E2F
:10308000811123C00115110539F0F801808191816A
:10309000C81BD90BC80ED91EB12CA12C2097A9F0A2
:1030A0008091E80085FD22C08091E8008E778093B2
:1030B000E80001151105A1F0F801808191818A0DC8
:1030C0009B1D9183808385E0F82E8F2DDF91CF911A
:1030D0001F910F91FF90DF90CF90BF90AF90089518
:1030E0000E9488198823D1F2F82EEFCFF601819142
:1030F0006F018093F1002197FFEFAF1ABF0ACECF87
:10310000FC01CB01209126023091270226173707B8
:1031100090F0009729F42091E8002E772093E800A2
:1031200040E0009751F4411108C08091E80082FF0F
:1031300031C080E00895C901F3CF20911F022223FE
:10314000A9F12530A9F12091E80023FD2DC020919F
:10315000E80022FDEACF2091E80020FFE2CF309185
:10316000F3002091F200009719F02830310558F053
:1031700041E02830310509F040E02091E8002E7749
:103180002093E800CECF41914093F10001972F5F4B
:103190003F4FE9CF80911F02882341F0853041F0F5
:1031A0008091E80083FFC1CF81E0089582E0089517
:1031B00083E00895FC01CB01209126023091270283
:1031C0002617370790F0009729F42091E8002E7712
:1031D0002093E80040E0009751F4411108C080912D
:1031E000E80082FF32C080E00895C901F3CF20914A
:1031F0001F022223B1F12530B1F12091E80023FD17
:103200002EC02091E80022FDEACF2091E80020FFA7
:10321000E2CF3091F3002091F200009719F02830AE
:10322000310558F041E02830310509F040E02091A7
:10323000E8002E772093E800CECF44914093F10030
:10324000319601972F5F3F4FE8CF80911F0288236F
:1032500041F0853041F08091E80083FFC0CF81E0EC
:10326000089582E0089583E00895982F973028F01C
:103270008F708093E90081E008959093E900242FF6
:10328000762F50E0981731F07091EC002091ED000E
:103290005091F00021FD02C09F5FE8CF3091EB001C
:1032A0003E7F3093EB003091ED003D7F3093ED0099
:1032B0003091EB0031603093EB007093EC00209381
:1032C000ED005093F0002091EE0027FDE5CF80E067
:1032D00008958091200287FF13C08091E80082FF4B
:1032E00006C08091E8008B778093E80004C080914D
:1032F0001F028111F2CF089580911F028823D9F314
:103300008091E80080FFF8CF8091E8008E77ECCFC5
:103310002091E4003091E50095E6A9012091EC00B0
:10332000822F817020FF06C08091E80080FF06C0D8
:1033300080E008952091E80022FD1AC080911F02CC
:10334000882389F0853089F08091EB0085FD0FC0DE
:103350002091E4003091E50042175307F9F29150B3
:10336000E1F684E0089582E0089583E0089581E025
:1033700008950E94271A0E942F1AE0EEF0E0808143
:1033800081608083E8EDF0E080818F77808319BCD5
:10339000A7EDB0E08C918E7F8C9380818F7E8083AF
:1033A00010921E0208950F931F93CF93DF930E94F4
:1033B000271A0E942F1AC8EDD0E088818F77888362
:1033C00088818068888388818F7D888319BC10926A
:1033D0001F0210921B0210921D0210921C0200EE9E
:1033E00010E0F80180818B7F8083888181608883F1
:1033F00042E060E080E00E943519E1EEF0E080817B
:103400008E7F8083E2EEF0E0808181608083808126
:1034100088608083F80180818E7F808388818061CD
:103420008883DF91CF911F910F910895E8EDF0E02F
:1034300080818F7E8083E7EDF0E0808181608083F2
:1034400084E082BF81E080931E020C94D319E8EDE2
:10345000F0E080818E7F80831092E20008951092C8
:10346000DA001092E10008951F920F920FB60F92AA
:1034700011242F933F934F935F936F937F938F9379
:103480009F93AF93BF93EF93FF938091E10082FFEF
:103490000BC08091E20082FF07C08091E1008B7F2A
:1034A0008093E1000E94A11C8091DA0080FF19C086
:1034B0008091D80080FF15C08091DA008E7F8093C4
:1034C000DA008091D90080FF94C080E189BD82E15B
:1034D00089BD09B400FEFDCF81E080931F020E94E8
:1034E000B8168091E10080FF19C08091E20080FF52
:1034F00015C08091E2008E7F8093E2008091E2000F
:1035000080618093E2008091D80080628093D8002F
:1035100019BC85E080931F020E94CA168091E100C9
:1035200084FF29C08091E20084FF25C080E189BD2D
:1035300082E189BD09B400FEFDCF8091D8008F7D66
:103540008093D8008091E1008F7E8093E10080918C
:10355000E2008F7E8093E2008091E20081608093A0
:10356000E20080911B02882309F449C084E0809323
:103570001F020E94CB168091E10083FF29C0809139
:10358000E20083FF25C08091E100877F8093E10006
:1035900082E080931F0210921B028091E1008E7FD7
:1035A0008093E1008091E2008E7F8093E200809121
:1035B000E20080618093E20042E060E080E00E94EF
:1035C00035198091F00088608093F0000E94C91640
:1035D000FF91EF91BF91AF919F918F917F916F91EB
:1035E0005F914F913F912F910F900FBE0F901F90C1
:1035F000189519BC10921F020E94C61672CF8091B6
:10360000E30087FD02C081E0B2CF83E0B0CF1F921C
:103610000F920FB60F921124FF920F931F932F93C7
:103620003F934F935F936F937F938F939F93AF934A
:10363000BF93CF93DF93EF93FF9309EE10E0F80170
:103640008081C091EC00C795CC27C7958F70FC2E68
:10365000F82A1082C0EFD0E08881877F8883789431
:103660000E94501BF8011082888188608883CF2DCA
:10367000CF70C083FF91EF91DF91CF91BF91AF9158
:103680009F918F917F916F915F914F913F912F917A
:103690001F910F91FF900F900FBE0F901F901895E4
:1036A0001F93CF93DF93CDB7DEB7AA970FB6F894E9
:1036B000DEBF0FBECDBF80E292E0FC0101962091FB
:1036C000F100208322E088329207B9F70E94D116D8
:1036D0008091E80083FF1DC180912002909121021A
:1036E0009A3008F016C1E92FF0E0EF5DF24E0C942D
:1036F000BC1C803899F0823809F00BC180912402FB
:103700008F70873008F005C18093E9008091EB004D
:1037100085FB882780F91092E90006C080911C0281
:1037200090911D02911182609091E800977F909393
:10373000E8008093F1001092F1008091E8008E770C
:10374000E4C0882309F4D2C0823009F0E2C080913D
:1037500022028111D5C0809124028F702FEF280F93
:10376000263008F0D6C08093E9002091EB0020FFBE
:10377000C7C0933031F48091EB0080628093EB00FE
:10378000BFC09091EB0090619093EB0021E030E09E
:1037900001C0220F8A95EAF72093EA001092EA000E
:1037A0008091EB008860EACF8111B3C010912202B2
:1037B0001F778091E3008078812B8093E3008091D4
:1037C000E800877F8093E8000E9469198091E800F3
:1037D00080FFFCCF8091E30080688093E30082E06B
:1037E000111183E080931F0294C08058823008F04A
:1037F00090C080912202909123028C3D23E0920799
:1038000099F583E08A838AE289834FB7F894DE01D1
:10381000139620E03EE051E2E32FF0E05093570092
:10382000849120FF03C082958F703F5F8F708A3034
:10383000C8F0895C90E08D939D932F5F243161F7F0
:103840004FBF8091E800877F8093E8006AE270E0D4
:10385000CE0101960E9480188091E8008B778093BA
:10386000E80057C0805DE6CF609124027091250288
:10387000AE014F5F5F4F0E94D217BC01892B09F444
:1038800048C08091E800877F8093E80089819A8111
:103890000E94DA18E1CF8038E1F58091E800877F57
:1038A0008093E80080911B028093F10046CF811144
:1038B00030C090912202923060F58091E800877FBD
:1038C0008093E80090931B020E94691980911B026B
:1038D000882311F084E005C08091E30087FDFACFD2
:1038E00081E080931F020E94CC1613C080912202B7
:1038F000813079F481E0933009F080E080931D02FB
:103900001092E9008091E800877F8093E8000E9490
:1039100069198091E80083FF0AC08091E800877FE1
:103920008093E8008091EB0080628093EB00AA9680
:103930000FB6F894DEBF0FBECDBFDF91CF911F91C0
:1039400008950895CF9380911F02882399F0809164
:10395000E900C091EC00C795CC27C7958F70C82BA4
:103960001092E9008091E80083FD0E94501BCF7007
:10397000C093E900CF910895EE0FFF1F0590F491D9
:10398000E02D0994F999FECF92BD81BDF89A99274F
:1039900080B50895A8E1B0E042E050E00C94F61C38
:1039A000262FF999FECF92BD81BDF89A019700B4F8
:1039B000021639F01FBA20BD0FB6F894FA9AF99A98
:1039C0000FBE08950396272F0E94D11C0E94D01C81
:1039D000252F0E94D11C242F0C94D11C0196272F37
:1039E0000E94D11C0C94D01CDC01CB01FC01F99984
:1039F000FECF06C0F2BDE1BDF89A319600B40D923B
:103A000041505040B8F70895F894FFCF2208280895
:103A10002C083A083E08420846084C085408580842
:103A20005C0860086C087008740878087E089C08B8
:103A30008608360864086808500882089208A508B5
:103A4000A908791BA11B891CA11B891CD41BF51B70
:063A5000891C4B1C571CF1
:103A5600D6018216871685168616B71601C6303128
:103A660032333790919293F795949697343536661C
:063A760067F6F5F4F1F023
:00000001FF
